:020000040800F2
:1000000058B30020792700087527000875270008D5
:1000100075270008752700087527000800000000F4
:10002000000000000000000000000000752700082C
:100030007527000800000000752700088D070008DC
:100040007527000875270008752700087527000820
:100050007527000875270008752700087527000810
:100060007527000875270008752700087527000800
:1000700075270008752700087527000875270008F0
:1000800075270008752700087527000875270008E0
:1000900075270008752700087527000875270008D0
:1000A00075270008752700087527000875270008C0
:1000B00075270008752700087527000875270008B0
:1000C00075270008752700087527000875270008A0
:1000D0007527000875270008752700087527000890
:1000E0007527000875270008752700087527000880
:1000F0007527000875270008752700087527000870
:10010000752700087527000875270008752700085F
:10011000752700087527000875270008752700084F
:10012000752700087527000875270008752700083F
:100130005FF808F108282CD870B506464401083449
:1001400004F580752846102106F064FF284606F065
:100150002DFF0028FAD104F500701F2106F05AFF88
:100160000123B340DB439BB20C4802881A40028053
:1001700042881340438000EB4602002393800644EC
:10018000337504F5407006F011FF0028F9D1012005
:1001900002E0FF2040B2704740B270BDB4080020BA
:1001A0002DE9F04182B0054608287CD80E469046DD
:1001B0001F4602290DD004290BD0012975D14FF417
:1001C000706001A9042206F059FF019B0BB9FD20C4
:1001D00074E017F0040F6AD1A7B1012E02D0022EED
:1001E00004D00FE017F0210F0CD162E017F0200FC0
:1001F00002D017F0800F5ED017F0100F02D017F06A
:10020000800F5AD02846FFF795FF6C01083427F07D
:100210000F012046314306F0FDFEB8F1000F0ED16C
:10022000284AB2F8008008F101039BB213804FF610
:10023000F072934203D14FF44042224B1A8004F5EE
:1002400080604FEA182106F0E5FE04F5A0605FFA31
:1002500088F106F0DFFE04F580763046012106F0D5
:10026000D9FE304606F0A2FE0028FAD10122AA40AB
:10027000D24392B2144B1988114007F00107AF40E6
:100280000F431F8059880A405A8003EB4501002222
:100290008A802B441A7504F5407006F087FE00280A
:1002A000F9D0E8B20AE0FF2008E0FB2006E0FA20DF
:1002B00004E0FA2002E0FA2000E0FA2040B202B0A6
:1002C000BDE8F08100000020B40800202DE9F041D5
:1002D000074608285FD80E46904644010834204659
:1002E00006F064FE00F00F00012856D104F54075B9
:1002F000284606F05BFE132851D13278737803EB61
:100300000222B37803EB0222F37803EB0223013BD2
:1003100013F1030F45D8B8F1000F44D004F5406045
:100320003146042206F0EAFE04F580504FEA182117
:1003300006F070FE04F588505FFA88F106F06AFE58
:1003400004F580763046042106F064FE304606F05F
:100350002DFE0028FAD1184B1B883B4113F0010FEA
:1003600012D022E004F50076304606F01FFE10F0B1
:10037000080F05D03046082106F04CFEF32017E0A8
:10038000284606F013FE90B1284606F00FFE172807
:10039000E8D101200CE0FF200AE0FB2008E0FD206E
:1003A00006E0F42004E0F52002E0002000E0FC205C
:1003B00040B2BDE8F08100BFB408002008287FD813
:1003C0002DE9F04714468A46064681464FEA401812
:1003D00008F10808404606F0E9FD00F00F0001288A
:1003E00071D1002C73D008F54077384606F0DEFD59
:1003F000172801D01C286ED13C4B5B88334113F089
:10040000010F1ED008F50075284606F0CFFD10F04C
:10041000100F0CD02846102106F0FCFD012303FA32
:1004200006F232494B8823EA02034B8009E010F0C0
:10043000080F54D03046FFF77DFE6FF00C00BDE88A
:10044000F08708F5F85006F0B1FD800285B2AC42A5
:1004500000D82546304606F093FE0446384606F09E
:10046000A5FD172808D01C2806D03046FFF762FEED
:100470006FF00600BDE8F0871C4B1B8843FA09F3B8
:1004800013F0010F01D0A5422CD8A542E2D8304686
:1004900051462A4606F0C4FE08F5807840462021E1
:1004A00006F0B8FD404606F081FD0028FAD1012390
:1004B000B3400E494A8813434B802846BDE8F08775
:1004C0004FF0FF3070476FF00400BDE8F0876FF029
:1004D0000D00BDE8F0876FF00600BDE8F087002052
:1004E000BDE8F0870020BDE8F08700BFB408002019
:1004F00008285FD82DE9F047144689460646074686
:1005000045010835284606F051FD00F00F0001288E
:1005100053D1002C55D005F5F05006F047FD800270
:100520001FFA80F8A04500D3A046304606F050FEE2
:10053000044605F5407006F039FD17281BD01C282D
:1005400012D10CBB304606F01BFE824605F5F85072
:1005500006F02CFDBAEB802F0DD13046FFF7EAFDF7
:100560006FF00600BDE8F0873046FFF7E3FD6FF05F
:100570000600BDE8F087164B1B883B4113F0010FC6
:1005800000D014B3002CD0D0A04500D9A0463046EE
:100590004946424606F072FE05F580752846402120
:1005A00006F038FD284606F001FD0028FAD1404645
:1005B000BDE8F0874FF0FF3070476FF00400BDE8F2
:1005C000F0876FF00D00BDE8F0870020BDE8F087F0
:1005D000B408002000B583B004200CF079FB0D4A6C
:1005E0000D4B5360F0210D4B83F8231000239360D3
:1005F00007211160FF228DF804208DF805308DF859
:10060000063001238DF8073001A80CF029FB03B058
:100610005DF804FB10E000E03F19010000ED00E090
:1006200030B587B00420012106F0B2FC4FF48040C1
:10063000012106F0ADFC04238DF817304FF48063E0
:10064000ADF8143003258DF81650164C204605A938
:1006500002F04CFB18238DF817304FF40073ADF8FF
:1006600014308DF81650204605A902F03FFB4FF4D8
:10067000E13301930023ADF810300C22ADF80E20C9
:10068000ADF80C30ADF80A30ADF8083004F5405440
:10069000204601A908F086F82046012108F0E8F874
:1006A00007B030BD0008014070B582B04020012184
:1006B00006F06EFC10268DF807600123ADF80430BB
:1006C00003258DF80650094C204601A902F00EFBC7
:1006D0008DF807600223ADF804308DF806502046EF
:1006E00001A902F003FB02B070BD00BF0018014079
:1006F00008B520B90448012102F046FB08BD0248B4
:10070000012102F043FB08BD0018014008B520B9E3
:100710000448022102F038FB08BD0248022102F021
:1007200035FB08BD0018014010B582B0124C2046C0
:1007300006F058F8A179E279237A607A00900F48A0
:1007400006F052FAA17AE27A237B607B00900C4893
:1007500006F04AFAA17BE27B237C607C009009488A
:1007600006F042FAA17CE27C237D607D0090064881
:1007700006F03AFA02B010BD1C000020ECF20008AE
:1007800008F3000824F3000840F30008024A136845
:1007900001331360704700BFD0080020014B186878
:1007A000704700BFD008002003E000220270194605
:1007B00001304B1E0029F8D1704700BF58B10268C4
:1007C0004AB110B50446936A40689847204608210C
:1007D000FFF7EAFF10BD7047012801D101487047BB
:1007E0000020704794FE000860B138B561B102681E
:1007F00062B905460C464B6A9847686040B12C6068
:10080000002038BD03487047024838BD014838BD54
:10081000014838BD80C1FFFF80C0FFFF30B108B57F
:1008200003682BB10846DB68984708BD0020704775
:10083000002008BD20B32DE9F04182B00F4690465C
:100840001D4604460368EBB145B9084601F0A4FD16
:1008500030B101F0FBFE0546002303E0002301E078
:100860004FF0FF3383B923681E697EB16068089B2F
:100870000093099B0193394642462B46B04706E058
:1008800004487047034802E0024800E0024802B012
:10089000BDE8F08180C1FFFF00C1FFFFDAB1F0B514
:1008A00083B014461268C2B127461E460D46044660
:1008B00038462146FFF7B2FF88B1062C11D095B912
:1008C0000A9B00930B9B019338463146089A099B7B
:1008D000FFF7B0FF08E005487047044804E004480B
:1008E00002E0044800E0014803B0F0BD80C1FFFF12
:1008F00000C1FFFF80C6FFFF40B32DE9F04184B087
:100900000F4690461D46044603680BB345B908469A
:1009100001F042FD30B101F099FE0546002303E0ED
:10092000002301E04FF0FF33A3B923685E699EB155
:1009300060680A9B00930B9B01930C9B02930D9B99
:100940000393394642462B46B04706E004487047B9
:10095000034802E0024800E0024804B0BDE8F0812C
:1009600080C1FFFF00C1FFFF88B130B585B00446EC
:10097000006870B1C56975B16068089C0094099CF5
:1009800001940A9C02940B9C0394A84704E003483A
:100990007047024800E0024805B030BD80C1FFFF4B
:1009A00000C1FFFF30B108B502682AB19268406803
:1009B000904708BD00207047002008BD70B584B086
:1009C00016461D461A46002402F8014B5C7001329F
:1009D00002F8014B02F8014B02F8014B02F8014BFF
:1009E00002F8014B02F8014B02F8014B02F8014BEF
:1009F00002F8014B147001AA09F0EEFE10B1A0F547
:100A00006A5314E001A8314606F0FEFE034648B9D9
:100A10003278012A0BD12A68052A00D022B96A68E7
:100A20002AB103E0034B02E0034B00E0024B1846FF
:100A300004B070BD80C3FFFF80C5FFFFF0B583B079
:100A400005460C46164601AA302309F0D1FD10B127
:100A5000A0F56C502AE02A68019B1344A34220D1E0
:100A600006F10807284621463A4609F01DFE0346CE
:100A700038B92846214606F1140209F015FE03464E
:100A800010B1A3F56C5011E02B68A3420BD1304696
:100A90000CF000FB48B9384603F0F2FC706000200F
:100AA00004E0034802E0024800E0024803B0F0BD61
:100AB0009AC4FFFF00C5FFFFF0B589B00546164692
:100AC00000238DF80F3007AA302309F091FD10B1F3
:100AD000A0F5745043E02F68079B1F442846394611
:100AE0000DF10F0204ABFFF769FF98BB28463946AA
:100AF00007AA09F017FE10B1A0F56C502FE02A6884
:100B0000079B1344BB4226D19DF80F00FFF764FEFC
:100B1000014610B33046FFF767FE00BB9DF80F306B
:100B2000012B0BD101AB96E8030083E803002846B4
:100B30003946029AFFF782FF044600E0094C1CB9CF
:100B40002B68BB4200D0084C14B13046FFF736FE8C
:100B5000204604E003E0044801E00248FFE709B052
:100B6000F0BD00BF80C3FFFF9AC4FFFF03E0002277
:100B70000270194601304B1E0029F8D1704700BFA2
:100B800008B5836C1BB10A46406C8908984708BDBC
:100B900008B5C36C33B1406C9847022804D14FF0BC
:100BA000FF3008BD002008BD002008BD10B5046F4F
:100BB000032C15D9416E4B788A78120242EA03421F
:100BC000CB781A430432826794420BD34368102BCC
:100BD0000AD0036B53B1D3F858319847002010BDA9
:100BE000034810BD034810BD002010BD002010BDFB
:100BF000008EFFFF808FFFFF2DE9F041A8B0044673
:100C000088461646C56A05B9856A0DA804F05AFEDD
:100C1000216B0DA8103104F063FE0EB90F4F00E0F8
:100C20000F4F0DA805A905F0D3FA236BD3F8646123
:100C300020240094CDF804800C23029305F12C00AD
:100C400030213A4605ABB0470DA804F041FE05A897
:100C50002146FFF78BFF28B0BDE8F0815CF3000868
:100C60006CF3000830B59DB005460C4601A804F0B1
:100C700029FE296B01A8103104F032FE01A821469B
:100C800005F0A6FA01A804F023FE1DB030BD00BF98
:100C90002DE9F04FB9B00546029103921F46DDF8E9
:100CA0000C91449C459E05A801F098FB284601F054
:100CB00073FB002874D0834601F0C8FC80460546CB
:100CC000019738460DF00CFF074600EB080A0AEBC7
:100CD0000903802B66D818AB9844404601993A46E0
:100CE0000DF030FD18AB03EB0A0042994A460DF0B7
:100CF00029FD4F4405A85946012201F0A3FB002815
:100D000052D105A80299039A01F0CEFB05A84146ED
:100D10003A4601F02DFC05A818A901F03DFC4FF062
:100D200000082EE005A801F067FC05A818A9EA193B
:100D300001F01EFC05A808A901F02EFC05A801F091
:100D40005BFC05A818A92A4601F012FC05A818A901
:100D500001F022FC08EB050EB64504D9B6FBF5F010
:100D600005FB106000E02846002307E008EB0302C3
:100D700038A9194411F8C01CA15401338342F5D39A
:100D8000F046B045CED305A801F042FB18A880215B
:100D9000FFF7ECFE08A84021FFF7E8FE002003E083
:100DA000034801E00348FFE739B0BDE8F08F00BF1A
:100DB0000094FFFF008FFFFF70B584B006460D461C
:100DC00014460093089B0193099B02930A9B03938B
:100DD000062031462A462346FFF75AFF04B070BD6D
:100DE00070B584B006460D4614460093089B0193E7
:100DF000099B02930A9B0393072031462A46234608
:100E0000FFF746FF04B070BD2DE9F041C6B00446BF
:100E100088461646C56A05B9856A10A80AF044FED8
:100E2000216B10A880310AF04DFE0EB90F4F00E083
:100E30000F4F10A804A90BF0BBFD236BD3F864611E
:100E400030240094CDF804800C23029305F12C008B
:100E500021463A4604ABB04710A80AF02BFE04A87E
:100E60002146FFF783FE46B0BDE8F0815CF3000841
:100E70006CF3000830B5B7B005460C4668460AF07A
:100E800013FE296B684680310AF01CFE6846214635
:100E90000BF08EFD68460AF00DFE37B030BD00BF86
:100EA000436A002B00F0A580836B002B00F0A38029
:100EB00070B586B013F1500F03D01A6D1AB1567881
:100EC00002E0002600E000260446072E01D0022E94
:100ED00036D1E268002A40F3908003F13800D4F85C
:100EE0008810082201F044FBA06B3830D4F88C1035
:100EF000032201F03DFBA06B3830D4F890100222A1
:100F000001F036FBA06B3830D4F89810D4F8A0204C
:100F100001F02EFBA06BD4F89810D4F8A030383034
:100F2000194401F039FBA06B383001F065FBA36B6D
:100F30005B69D4F8A0201344C4F8A030012500E078
:100F40000025022E5BD100230593D4F8A0100131B7
:100F5000A36BDA68B1FBF2F302FB1311511A8A4258
:100F600000D10021002306E0D4F89800D4F8A02096
:100F70001A44815401338B42F6D9D4F8A0600E4450
:100F80000136C4F8A060D4F89830E268012A19DD6F
:100F900022689669A36BD06903F11801DA68B0473B
:100FA00018BBA36BD4F8940003F11801DA680DF0B4
:100FB000C9FBD4F89830D4F8A060A26BD268324450
:100FC000C4F8A020A16BCA680096019305A80290FE
:100FD00001F15000183101F05FFE38B9059B9E42C7
:100FE00005D175B9A0F5D8400CE00BE00AE0064841
:100FF00008E00548704704487047034802E002488B
:1010000000E0002006B070BD0094FFFF036A002BD3
:1010100000F03281436B002B00F030812DE9F0436A
:1010200091B013F1900F04D0D3F890201AB15178F9
:1010300002E0002100E00021056F9A689542C0F0AF
:101040001F81022940F01E8100220492C468012CF5
:1010500001DDDA6800E00022D9688E18B542C0F0E0
:1010600094805B691A4401329542C0F09080436ECF
:10107000B5FBF1F201FB1252002A40F08A80012CEC
:101080000CDD6D1A056705E0046EA45C114481F85F
:1010900028400132416BCC689442F5D80446416B3C
:1010A000CA680095019304A8029001F190002831CC
:1010B00001F0F2FD00286ED1049B9D426CD1D4F862
:1010C00064E0D4F870C00EEB0C0313F8010C01308F
:1010D000D4F83480D8F814301A18944501D301227A
:1010E00001E000221046E168002957DDC0EB0C0743
:1010F000013F00F10109CC4534BF002202F001029A
:1011000003F58053BB4294BF4FF0000902F0010980
:1011100009FB07F7012100250B460FE083428CBF36
:10112000002101F001010EEB0302D25D461EB24226
:1011300014BF0022012201FB02550133B3F5807F69
:10114000ECD9854214BF002509F001056E02761B1B
:101150000640C6EB0C032367D8F814209B1A2367BC
:10116000E26DC3F307231370E36D94F870205A7097
:10117000616E226F636B04A811445A690DF0E2FAA4
:10118000E368002B0CDC434881E043487FE04248A1
:101190007DE041487BE07AE03E4878E03D4876E0FB
:1011A000236F981900F1150715339B09C3EB9713AB
:1011B0002F027F1B1F40606B4430616D082201F0DD
:1011C000D7F9606B4430A16D032201F0D1F9606B57
:1011D0004430E16D022201F0CBF9606B4430616E66
:1011E000226F01F0C5F9606B616E236F44301944C2
:1011F00001F0D2F9002605E0606B4430616E01F029
:1012000015FA01367B1CB342F6D8606B443001F00E
:10121000F3F9D4F864E0276F636B5E6900210B4635
:1012200009E010AA1A4412F8300C0EEB0702D25C47
:101230004240114301339E42F3D801B100250DB164
:1012400017B107E0144822E0E36F0133E367032B93
:101250000CDD19E00023E36708E0606D4A1E835C43
:101260000133DBB2835423B9114600E00821002981
:10127000F3D159B909480AE0064870470548704754
:10128000054804E0034802E0034800E0002011B0F4
:10129000BDE8F0830094FFFF808EFFFF8094FFFF86
:1012A000436B5BB110B50446FFF7B0FE40B9236F46
:1012B000B3F5805F05D9A0F5E44010BD002070476C
:1012C00010BD002010BD00BF08B5006B103004F049
:1012D00045FF08BD08B5006B80300BF025FB08BD4D
:1012E00070B504460E461546006B103004F036FF0C
:1012F000206B803031462A460BF016FB70BD00BFD4
:1013000038B5044600214FF4F8720DF0F5FA04F1F7
:101310001005284604F0D6FA2846002104F0E6FA23
:1013200004F1800528460AF0BFFB284601210AF097
:10133000CFFB034BC4F858310223236038BD00BFF4
:10134000E112000810B504460021D0220DF0D4FAB5
:1013500004F1500001F058FA04F1900001F054FA41
:1013600004F1380001F03AF804F1440001F036F8D5
:1013700010BD00BF2DE9F04FD7B00546D0F82C8046
:10138000046C076B2368187A01F030FA002800F02B
:101390004B8106462368587A00F0FEFF81460028FC
:1013A00000F04481EB68032B0DD12268527A072AA2
:1013B00009D1A84BC7F86431A74BC7F85C31A74BDC
:1013C000C7F860310BE0032B40F03281A44BC7F823
:1013D0006431A44BC7F85C31A34BC7F86031D7F830
:1013E000DC31C3B9D7F864C107F5D67AD7F86811EC
:1013F00008F12C03402200920193302302935046BF
:101400009A4A07F5B673E047002840F0138150462A
:101410003021FFF7ABFB07F5B67E0DF58C7A07F5AB
:10142000D67BD446DEF80000DEF80410DEF8082093
:10143000DEF80C30ACE80F000EF1100EE246DE458F
:10144000EFD107F5B67A0DF59C7EBEE80F00C7F820
:101450006C01C7F87011C7F87421C7F87831BEE87D
:101460000F00C7F87C01C7F88011C7F88421C7F8BE
:1014700088310DF58C7EBEE80F00C7F88C01C7F8E7
:101480009011C7F89421C7F89831BEE80F00C7F84B
:101490009C01C7F8A011C7F8A421C7F8A83146A835
:1014A0004021FFF763FBD7F864714023009306AB3C
:1014B00001934FF48073029308F12C0030216C4AA1
:1014C0005346B847002840F0B68050464021FFF709
:1014D0004DFB7368DB0863607378062B01D0082B23
:1014E00010D1002363610C23E3600423236123688C
:1014F0001B7F13F0020F01D0082300E010230833F4
:10150000A36028E004F138004946012200F09AFF68
:10151000034638B904F144004946012200F092FF25
:10152000034608B1184692E0484601F08FF8606122
:10153000F168E1607378072B01D1A0600BE073695B
:10154000B0FBF3F003FB0033A360EA68023A012A20
:1015500072D80B44A3602B6893F8503013F0010F3E
:101560006CD1D4F814B04FEA4B0706AB3B4405935B
:10157000D4F80480474406AB1F4403EB0B09D4F8AE
:1015800010A0BAF1000F01D1D4F80CA004F118009A
:1015900007EB080152460DF0D5F80AEB080104F1FB
:1015A0002800394452460DF0CDF8EB68002B47DD9A
:1015B00004F1380006A95A4600F076FF04F1440011
:1015C0004946626900F070FF04F150052846314633
:1015D00001F042FB002835D190342046314601F01D
:1015E0003BFB80BB284605997268012301F022F974
:1015F00050BB204639467268002301F01BF920BB1E
:101600007378022B09D12846042101F00BFBE8B9BD
:101610002046042101F006FBC8B906A84FF48071EA
:10162000FFF7A4FA002012E0124810E011480EE083
:1016300011480CE00BE00AE00F4808E00E4806E015
:101640000D4804E003E002E001E000E0FFE757B0EE
:10165000BDE8F08FE10D0008750E0008090E0008C6
:10166000B90D0008650C0008F90B00087CF30008B0
:101670008CF30008008FFFFF0094FFFFF8B543696B
:1016800013B98369002B2ED00E460446036D826D7C
:101690009B1A03F58A530D338B421FD225E0B51AEE
:1016A0002046FFF775FA90B9A76947B1A16D626F3F
:1016B0002368E06911442A469B6CB84708E06369D7
:1016C000A16D626FE06911442A46984700E009481D
:1016D00068B100280CDB636F18446067626FB24228
:1016E000DDD30020F8BD0448F8BD0348F8BD034829
:1016F000F8BD00BF0098FFFF008FFFFF808DFFFF48
:1017000038B503694BB30446D0F8A4308BB926E052
:10171000D4F88C10D4F8A03005339B1A2569E06901
:101720001944A84700281DDDD4F8A4301B1AC4F8BA
:10173000A430D4F8A420002AEAD1082208E0D4F882
:101740008800511E435C0133DBB2435413B9CAB263
:10175000002AF4D12AB9044838BD044838BD002015
:1017600038BD002038BD00BF8094FFFF008FFFFF11
:101770004B7A072B04D1036B054AC3F858217047F5
:10178000072B03D0036B034AC3F85821704700BFEF
:10179000D5120008C912000808B5002164220DF016
:1017A000ABF808BD08B50021B4220DF0A5F808BDBE
:1017B00090F8503061F3000380F85030704700BF5C
:1017C00090F8503061F3410380F85030704700BF0B
:1017D00090F8503061F3830380F85030704700BFB9
:1017E0008161C261704700BFC16102614361009BBA
:1017F000836170478164704710B541648264C3643B
:101800000021FFF7BDF910BDC1630264704700BF3E
:10181000836A0BB1186E7047C36A0BB1186E7047BC
:101820004FF0FF30704700BF30B108B5836A2BB16D
:10183000186806F029F808BD00207047002008BD90
:1018400060B108B503685BB193F8503013F0010F35
:1018500002D107F081FE08BD024808BD024870476A
:10186000014808BD808FFFFF008FFFFF78B110B5E2
:10187000044603686BB1002204E02046FFF7E0FF56
:10188000024610B96368102BF7D1104610BD02480C
:101890007047014810BD00BF008FFFFFA8B110B511
:1018A0000446503000F0B6FF04F1900000F0B2FFA3
:1018B00004F1380000F0ACFD04F1440000F0A8FD94
:1018C0002046D021FFF752F910BD704770B110B516
:1018D0000446103003F0FCFF04F180000AF0EAF83F
:1018E00020464FF4F871FFF741F910BD704700BF73
:1018F00010B50446006BFFF7E9FF206B0CF062FCAB
:1019000000232363E06B20B1FFF7C8FFE06B0CF00E
:1019100059FC236CE3630023236410BD68B110B548
:101920000446C06D20B102F0A9F8E06D0CF04AFC4D
:1019300020466421FFF71AF910BD704738B50446F8
:10194000036BD3F8DC51806A20B1FFF7E7FFA06A90
:101950000CF038FCE16AA1620023E3622268536A5A
:1019600023B1886810B10DB9906A98472046FFF7F7
:10197000BFFF63680133636038BD00BF10B5044624
:10198000006C08B1FFF78AFFE06A08B1FFF7C6FFF5
:10199000206B08B1FFF79AFF236C23B90120D021F7
:1019A0000CF0D0FB2064E36A23B9012064210CF021
:1019B000C9FBE062236B2BB901204FF4F8710CF0E6
:1019C000C1FB2063236B1BB1226C0AB1E06A70B9C2
:1019D00018460CF0F7FB206C0CF0F4FBE06A0CF0FE
:1019E000F1FB002323632364E362064810BDFFF785
:1019F000D3FE206CFFF7A6FC206BFFF781FC0020D4
:101A000010BD00BF0081FFFF38B504460160012012
:101A100041F24D110CF096FB0546206538B10120CE
:101A200041F24D110CF08EFBC4F8840030B9284609
:101A30000CF0C8FB00232365104838BDC4F88800AB
:101A400000F10803C4F88C3000F10B03C4F89030A7
:101A50000D30C4F89400C4F89800656505F10803DA
:101A6000A36505F10B03E3650D3525666566204624
:101A7000FFF784FF0028FFD038BD00BF0081FFFFC3
:101A800008B5002154220CF037FF08BDF8B5044614
:101A90000E4617461D46FFF78BFE20463946FFF7D8
:101AA0008FFE36B994F85030022262F3830384F833
:101AB0005030022D12D1032384F84E3084F84F3079
:101AC00084F84C3084F84D30104BE360A3606360C1
:101AD00023600F4A62630C33636414E0032384F8C9
:101AE0004E30012284F84F2084F84C3084F84D3079
:101AF00005F0B8FEE060A06060602060054B6363A5
:101B000000F046FC60640020F8BD00BF0400002027
:101B100058F5000848F5000808B50121FEF77EFEDB
:101B200008B1012008BD002008BD00BF033805280A
:101B30000ED8DFE800F0030F0507090B01207047FE
:101B40000320704704207047052070470620704727
:101B500000207047022070470020704718705970AD
:101B6000704700BF38B50446D0F8A050D0F89C307C
:101B7000162B1DD1D0F89820137813B1036B002BCE
:101B800049D02B1FC3F307415170D4F89820C3F3F9
:101B900007239370D4F898302A1FDA70D4F898107D
:101BA0000B782BB1236BD3F8583120462A4698473F
:101BB000D4F88C3094F89C201A70236893F8502045
:101BC000D4F88C30A068E168C2F340020133FFF71B
:101BD000C5FFD4F89030C5F307221A70D4F89030BE
:101BE0005D70A36B6BB12046FFF75AF9A8B9D4F822
:101BF000A030D4F89020C3F307211170D4F89020BE
:101C00005370D4F8A0300533C4F8A4302046FFF751
:101C100077FD18B938BD024838BD38BD38BD00BFA2
:101C20000094FFFFA0B108B50346006890B11520ED
:101C3000C3F89C000220C3F8A000D3F898000170FC
:101C4000D3F898104A701846FFF78CFF20B908BDEA
:101C500002487047014808BD08BD00BF008FFFFF64
:101C600008B502212822FFF7DDFF0028FFD008BDBC
:101C7000F8B50646036C1B689A7A531FDBB2012B3A
:101C800001D9082A04D17368013373600020F8BDBC
:101C9000026892F8503013F0010F06D1D0F8A80076
:101CA00018B9736801337360F8BD336B0BB1DB682F
:101CB00003B9936B0BB11F6800E0002707231FE0F7
:101CC0007D68C3F57F620D32AA423AD3D6F89820D8
:101CD000C5F30741D154D6F898105A1CC5F3072014
:101CE0008854D6F898109A1C8D54DC1CD6F89800AD
:101CF0002044B9682A460CF025FD6319D7F83071E5
:101D0000002FDDD1D6F89810DA1FC2F30740087112
:101D1000D6F89810C2F307224A71D6F89820D91F36
:101D20009171C6F8A0301623C6F89C30D6F89830CA
:101D30000B221A707368013373603046FFF712FF8D
:101D4000F8BD0148F8BD00BF008BFFFF08B51422A5
:101D5000C0F89C200122C0F8A020D0F898100A708A
:101D6000426801324260FFF7FDFE0028FFD008BD47
:101D700010B50446C368012B09DDD0F89400216C2E
:101D8000CA680B69D31A0344C4F8983003E0D0F84A
:101D90009430C0F89830236BD3F86031D4F89810A1
:101DA000226892F850202046043102F00102984740
:101DB000E3680BB9242300E00C230433C4F8A030FB
:101DC0001623C4F89C30D4F8983014221A70236B70
:101DD000D3F8DC3143B1236893F8503013F0010F8E
:101DE00005D10F23636002E0636801336360D4F8B8
:101DF00088100B46002203F8012B4A70013303F8C8
:101E0000012B03F8012B03F8012B03F8012B03F836
:101E1000012B1A70236CA363E36A63622046FFF709
:101E2000A1FE0028FFD010BD38B505461446D0F8F5
:101E3000A4301BB1FFF764FC68B10EE0C5F8A02028
:101E40001723C0F89C30D0F898000CF07BFC284693
:101E5000FFF788FE10B9204638BD38BD38BD00BF39
:101E600088B170B5044603687BB115460E464368D9
:101E7000102B02D0FFF7FAFC48B9204631462A461B
:101E8000FFF7D2FF70BD02487047014870BD70BDBA
:101E9000008FFFFF1A7802605B780B60704700BF0D
:101EA00010B582B00446836D13F8012BC266C16D74
:101EB00008784A7842EA00222267226892F8502085
:101EC00001A86946C2F34002FFF7E4FFE36E143B4A
:101ED000032B08D9204602210A22FFF7A3FE48BBA4
:101EE000A0F5E44034E0A268019B9A4223D1236824
:101EF00093F84D20009B9A421FDB226F236D616E89
:101F00005B1A03F58A530D339A4218D8636B2BB9C9
:101F1000013AB2F5805F14D2002019E09B689A4222
:101F200011D3E168002910DD03F588539A420ED8D9
:101F300000200DE00CE007480AE0064808E00548EC
:101F400006E0044804E0034802E0002000E0014805
:101F500002B010BD008EFFFF10B50446836F73B151
:101F6000026F93420BD2D21A0267416E084619449F
:101F70000CF05EFC2046FEF719FE58BB10BD002396
:101F8000A36720460521FFF779FB20BB2046FFF71A
:101F900087FF08BB216F20460531FFF76FFBE0B9D3
:101FA000002363672046FFF77BF9B8B9E36E162B71
:101FB00003D12046FEF7FAFD88B9E36E152B0FD149
:101FC000626E1378022B0DD0012B0DD153786BB1BB
:101FD000002010BD10BD10BD10BD10BD10BD10BD46
:101FE000002010BD024810BD002010BD014810BDEA
:101FF0008088FFFF8087FFFF2DE9F04385B0036CE9
:102000001F68036893F85060C6F38106BA7A531FBD
:10201000DBB2012B01D9082A04D1436801334360A4
:10202000002096E00446FFF797FF804600287CD109
:10203000636801336360E36E162B77D1626E1378A9
:102040000B2B75D1A16F092974D95079937943EA83
:1020500000231279002A6FD1073399426ED1E36AC7
:10206000D86D28B101F00AFDE36AD86D0CF0AAF82A
:10207000E56A01204FF49A710CF064F8E8650028D5
:102080005ED0E36AD86D01F0F1FCC146072516E089
:10209000616E4B5D002B55D14B195A789B7843EA02
:1020A0000222EB1C7F2A4FD99D18A8424ED3E06A2A
:1020B000C06D194401F0B8FE814600B149E0A06F3F
:1020C000A842E5D87EB32568E96B2A6C00293FD089
:1020D000D4F82CE0DEF85C006B6B0EF1600ED5F8E6
:1020E0002CC02D6B0395D4F8AC500095CDF804E0CE
:1020F000CDF808C001F0ECFB8146E36A226892F853
:10210000502082F00102D86D394602F0010260339E
:10211000FFF722FD20B1B9F1000F01D1A9F5F44973
:10212000012E00D1C146484613E012E00A4810E0F3
:102130000A480EE009480CE008480AE0074808E0B1
:10214000074806E0054804E0044802E0034800E0D0
:10215000044805B0BDE8F0830089FFFF0086FFFF5B
:102160000081FFFF8089FFFF10B50446FFF7F4FEF2
:10217000002831D1E36E142B2FD1236F012B2ED1E8
:10218000636E1B78012B2CD1236C6363E36A23629B
:10219000616D0B46002203F8012B4A70013303F8EE
:1021A000012B03F8012B03F8012B03F8012B03F893
:1021B000012B1A70E368012B07DD206E216CCA68C1
:1021C0000B69D31A0344636601E0236E6366636898
:1021D00001336360002010BD10BD034810BD0348EB
:1021E00010BD024810BD00BF0089FFFF0082FFFF45
:1021F00030B585B00446036BD3F86031026892F8BD
:10220000502002F0010201A982F001029847204605
:10221000FFF7A2FE50BBE36E162B28D1656E2B781C
:10222000142B26D1A36F102B25D100210B4608E0DB
:10223000EA18107904AA1A4412F80C2C42401143EF
:1022400001330B2BF4D9C1B9236BD3F8DC0148B1AE
:10225000236893F8503013F0010F10D10A23636004
:1022600000200DE063680133636009E008E0054881
:1022700006E0054804E0044802E0034800E00020CE
:1022800005B030BD0089FFFF8081FFFF00285DD0D1
:10229000F8B504460368002B5AD015460E4643682D
:1022A000102B08D0FFF7E2FA10F5D64F05D0002822
:1022B00055D1002702E0002700E00127A36E8BBB69
:1022C000E36C4BB1606C9847B0F1FF3F04D12368D9
:1022D0002046996CFEF754FC47B92046FFF73CFEB8
:1022E00020B110F5E54F35D10020F8BD236F5BB963
:1022F000E36E172B08D12046FFF72EFE20B110F514
:10230000E54F28D10020F8BDE36E152B24D0172B04
:1023100024D1636EA3666368102B03D1204600218D
:10232000FEF72EFC206F854228BF05463046A16E81
:102330002A460CF007FA236F5B1B23670BB9A366D1
:1023400002E0A36E2B44A3662846F8BD04487047FC
:102350000348F8BDF8BDF8BD0248F8BD0248F8BD15
:10236000008FFFFF0097FFFF0089FFFF08B50021E6
:102370004FF4A0720CF0C0FA08BD00BF03E00022C9
:102380000270194601304B1E0029F8D1704700BF7A
:1023900000487047C4F30008033805280ED8DFE86A
:1023A00000F0030F0507090B064870470648704701
:1023B0000648704706487047064870470020704737
:1023C00005487047C8FF000868FF000838FF00088C
:1023D00008FF0008D8FE000898FF00080346002206
:1023E00003F8012B4270013303F8012B03F8012B92
:1023F00003F8012B03F8012B03F8012B03F8012B41
:1024000003F8012B03F8012B03F8012B1A70704716
:10241000B0B110B5044603688BB1406808B15B6A7F
:102420009847A06838B12368D9684900FFF7A6FF2C
:10243000A0680BF0C7FE20460C21FFF79FFF10BDE0
:10244000704700BFC1B1F8B50D46B8B11646044695
:102450000B6A98470746606090B156B10220E96860
:102460000BF070FEA06020B96B6A384698470548AB
:10247000F8BD25600020F8BD034870470248F8BD4C
:102480000048F8BD80AEFFFF00AFFFFF40B110B5C0
:1024900004460846E46911461A46A047002010BDCC
:1024A0000048704700AFFFFF002856D02DE9F041EB
:1024B00090B00D46174680460368002B4FD08268C7
:1024C000002A4ED0DA68BA4215D21B694068984794
:1024D000D8F800305B69D8F8040029463A46984796
:1024E000D8F800309B69D8F8040069469847D8F8B6
:1024F00000309F686D46D8F80840D8F80030DA6898
:10250000A618204636210CF0F7F9D8F800303046EE
:102510005C21DA680CF0F0F9002308E0E15CEA5C89
:102520004A40E254F15CEA5C4A40F2540133BB4257
:10253000F4D368464021FFF721FFD8F800301B692B
:10254000D8F804009847D8F800305D69D8F804003E
:102550002146DA68A847002004E004487047034891
:1025600000E0024810B0BDE8F08100BF00AFFFFFFF
:1025700050B10346006848B110B59C6844B1446945
:102580005868A047002010BD0248704701487047B6
:10259000004810BD00AFFFFF20B3F0B591B0044676
:1025A00003680BB382680AB30E46DD6815449B6965
:1025B00040686946984723681B69606898472368A4
:1025C0005F6960682946DA68B84723685D696068B2
:1025D00069469A68A84723689B69606831469847AE
:1025E000002004E003487047024800E0014811B0B1
:1025F000F0BD00BF00AFFFFF80B1026882B170B5CF
:1026000085687DB1044613694068984723685E6910
:1026100060682946DA68B047002070BD02487047FC
:1026200001487047004870BD00AFFFFF38B108B5E2
:10263000026832B1D26A40689047002008BD024863
:102640007047014808BD00BF00AFFFFF08B1007A26
:1026500070470020704700BF82B0002301930093B1
:102660002C4A136843F4803313602A4B1B6803F42D
:1026700000330093019B01330193009B1BB9019B25
:10268000B3F5A06FF1D1234B1B6813F4003F02D0C8
:102690000123009301E000230093009B012B36D11E
:1026A0001D4B1A6842F010021A601A6822F00302E9
:1026B0001A601A6842F002021A60A3F580535A6841
:1026C0005A605A685A605A6842F480625A605A687E
:1026D00022F47C125A605A6842F4E8125A601A686E
:1026E00042F080721A600B4B1B6813F0007FFAD027
:1026F000084B5A6822F003025A605A6842F00202FC
:102700005A60044B5B6803F00C03082BF9D102B04C
:10271000704700BF001002400020024008B5FFF7DC
:102720009BFF08BD08B5104B1A6842F001021A6001
:1027300059680E4A0A405A601A6822F0847222F4DC
:1027400080321A601A6822F480221A605A6822F4D1
:10275000FE025A604FF41F029A60FFF7DFFF4FF04E
:102760000062034B9A6008BD001002400000FFF8B1
:1027700000ED00E0FEE700BF08B50C4B0C4A03E09B
:1027800011681960043304320A498B42F8D30A48AD
:102790000A494FF000028842B8BF40F8042BFADB28
:1027A000FFF7C0FF03F012F808BD00BF00000020D3
:1027B000F8370108B4080020B40800205433002082
:1027C00003E000220270194601304B1E0029F8D1A7
:1027D000704700BF18B122B1116000207047024855
:1027E00070470148704700BF009FFFFF054B03E0A3
:1027F0001978814203D008335A68002AF8D110466C
:10280000704700BF2433010808B5002140220CF0B6
:1028100073F808BD60B110B50446C06B18B12368E9
:102820009B699B69984720464021FFF7C9FF10BD6F
:10283000704700BFF0B138B504460068E0B10569E3
:1028400015F0020F02D14568954217D162602372DC
:10285000012B04D04578032D01D0052D04D18369C7
:10286000DB68E06B984738BD53B983691B69E06B3F
:10287000984738BD03487047024838BD014838BD05
:10288000004838BD009FFFFFC0B138B5034600685F
:10289000B0B1B9B1102A17D8046914F0010F03D1EF
:1028A000C568954201D911E015461C4603F1280080
:1028B0002A460BF047FFA563002038BD0448704747
:1028C000034838BD024838BD024838BD004838BD0D
:1028D000009FFFFF809FFFFF034620B1026822B1E7
:1028E000002058627047024870470148704700BF97
:1028F000009FFFFF2DE9F04383B00A9E002800F0FF
:10290000DC800F461546984604460368002B00F00D
:10291000D680002E00F0D5800023336003685A78FB
:10292000012A17D110B11BB15B6902E0002300E05E
:1029300000239D4240F0C780356023689B695D6835
:10294000E06B94F908103A464346A847002840F047
:10295000BC80C4E041450DD1416A002940F0B680F9
:1029600008B103B15969B5FBF1F001FB1051002921
:1029700040F0AE80022A40F0AD80227A52B9616AFE
:10298000294414B11BB1586902E0002000E0002086
:1029900081420DD952B2012A16D1626A2A4414B179
:1029A0001BB1596902E0002100E000218A420BD2EC
:1029B000606A2044143039462A460BF0C3FE636A2D
:1029C0001D44656200208AE0606A00283FD014B18F
:1029D0001BB15B6902E0002300E00023C0EB0309A8
:1029E0002044143039464A460BF0ACFE23689A69FD
:1029F000D2F808C0E06B217A14B11BB15A6902E029
:102A0000002200E0002204F114030093CDF80480BA
:102A100049B204F12803E04700285DD11CB12368C6
:102A20001BB15B6902E0002300E00023326813441D
:102A300033601CB123681BB15B6902E0002300E036
:102A400000239844002363624F44C9EB050505B396
:102A50001CB123681BB15B6902E0002300E0002386
:102A6000B5FBF3F903FB1959B9F1000F06D1237A2D
:102A700023B91CB123680BB1D3F81490C9EB050539
:102A800004F1140079194A460BF05CFE636A4B446A
:102A9000636215B323689B69D3F808C0E06B94F9AF
:102AA00008100097CDF804802A4604F12803E04777
:102AB000A8B933681D44356011E00A480FE00948A1
:102AC0000DE008480BE0084809E008E0054806E08A
:102AD000044804E0054802E001E00020FFE703B0FD
:102AE000BDE8F083009FFFFF809DFFFF809FFFFFF9
:102AF000002876D0F0B583B004460368002B72D06E
:102B0000002A72D00023136006687378032B6ED0FE
:102B1000052B6ED0062B6ED0072B6ED0012B04D167
:102B2000436A002B6BD03C4873E0022B69D11546F9
:102B30000F4690F90830012B13D1C36823B9436ABB
:102B4000002B60D0344864E0143024B12EB1A16B66
:102B500021B9F16802E0002100E00021626A984793
:102B600010E010B11EB1726902E0002200E0002204
:102B7000636A934206D0E268002A46D1002B46D011
:102B8000254846E023689A699668E06B217A14B17B
:102B90001BB15A6902E0002200E0002204F1140394
:102BA0000093019749B204F12803B04788BB237A08
:102BB00063B926691CB123681BB1596902E0002181
:102BC00000E0002138462A46B04722E01CB12368C5
:102BD0001BB15B6902E0002300E000232B600020B2
:102BE00017E00E4870470D4813E00C4811E0002034
:102BF0000FE000200DE000200BE0002009E00020A5
:102C000007E0074805E0002003E0034801E000205A
:102C1000FFE703B0F0BD00BF809DFFFF009FFFFFF7
:102C2000809FFFFF034650B102685278022A08D104
:102C3000042908D10020D860044A1A61704704486A
:102C40007047034870470348704700BFD527000806
:102C5000009FFFFF809FFFFF99B138B50D4690B1EF
:102C60000446002140220BF047FEAB695B699847A0
:102C7000E06350B1256020460421FFF7D3FF002018
:102C800038BD03487047024838BD024838BD00BF10
:102C9000009FFFFF809EFFFF30B585B004461D46B4
:102CA000FFF7F2FDE0B92046FFF716FEC8B90A9B10
:102CB000009320462946089A099BFFF71BFE88B916
:102CC0000A9B19682046099B194403AAFFF710FFC5
:102CD00048B90A9B1A68039B13440A9A136002E0DE
:102CE00001E000E0FFE705B030BD00BFF0B5CB78F4
:102CF00003F00F02154613F0100F01D08D78154325
:102D00000B78E3B10668002216E0012393400C889B
:102D10001C409C420FD197000F24BC4026EA0406B9
:102D200005FA07F42643CC78282C01D1436102E050
:102D3000482C00D103610132072AE6D906600B88CE
:102D4000FF2B20D9476800241AE004F10802012370
:102D500093400A881A409A4211D14FEA840E0F22FA
:102D600002FA0EF627EA060205FA0EF71743CA78AA
:102D7000282A00D14361CA78482A00D1036101346E
:102D8000072CE2D94760F0BD01617047416170478F
:102D9000F0B5059F4FF0000CE646644631E0013483
:102DA000013500E00025BC4202D21E5D202EF6D087
:102DB000BC4228D03E1B012E06D91E5D0D2E03D12C
:102DC0001E1976780A2E1BD01E5D0A2E18D0002DF3
:102DD0006AD13D2E04D10CF1010CBCF1020F66D872
:102DE00016F0800F66D1384D2E4496F840507F2D56
:102DF00063D03F2D02D8BCF1000F61D10EF1010E5E
:102E00000134BC42CED3BEF1000F02D100201060CD
:102E1000F0BD0EEB4E0E4FEA4E0E0EF1070ECCEB50
:102E2000DE0508B1A94234D215606FF02900F0BD6B
:102E300019780D292AD00A2928D0202926D0DFF890
:102E400088C0614491F84010402908BF013E01F05C
:102E50003F0141EA87170135042D17D12EB1C7F381
:102E600007418EF800100EF1010E012E05D9C7F3AF
:102E700007218EF800100EF1010E022E05D98EF8F2
:102E800000700EF1010E002500E00025013C013329
:102E900003E08646002703263D46002CC8D1C0EB40
:102EA0000E0010600020F0BD6FF02B00F0BD6FF041
:102EB0002B00F0BD6FF02B00F0BD6FF02B00F0BDCC
:102EC0006FF02B00F0BD00BFE0F3000803E000222C
:102ED0000270194601304B1E0029F8D1704700BF1F
:102EE0000268013901238B401A4201D0002070474B
:102EF0004FF0FF30704700BF4268013901238B401B
:102F00001A4201D0002070474FF0FF30704700BFD9
:102F100030B400230FE0C45CCD5C65400AD0202DA6
:102F20000DD1A4F16105EDB2192D03D9413CE4B2F4
:102F3000192C07D801339342EDD3002004E04FF061
:102F4000FF3001E04FF0FF3030BC704770B50468CF
:102F50008C4217D015460646207842F8040B3046BE
:102F600043F0A00307F044FB20B110F1620F0BD136
:102F7000002070BD3368AB6032686B681344336007
:102F8000002070BD002070BD70BD00BFF8B50546C3
:102F90000C4606680F68BE4209D143684A689342EE
:102FA00005D1806889680BF09BFB0346E0B10C2ECD
:102FB00001D0132E10D10C2F01D0132F0FD16B681D
:102FC000626893420ED1A868A168FFF7A1FF03468B
:102FD00050B14FF0FF3307E04FF0FF3304E04FF004
:102FE000FF3301E04FF0FF331846F8BD38B5044613
:102FF0000D461BE004B315B322682B689A4221D119
:1030000063686A68934220D1A068A9680BF068FBE6
:10301000F0B904F10C0005F10C01FFF7B7FFD0B9CE
:10302000227F2B7F9A4219D1A469AD69002CE1D18E
:10303000002DDFD1002038BD4FF0FF3038BD4FF0FC
:10304000FF3038BD4FF0FF3038BD4FF0FF3038BD96
:103050004FF0FF3038BD4FF0FF3038BD4FF0FF303C
:1030600038BD00BF2DE9F84306460C461546994683
:103070004C306C31FFF7BAFF10BB07462DB1A36986
:10308000022B05DD4FF0010804E04FF0010801E0DC
:103090004FF000086DB1B9F1000F0AD07268636893
:1030A0009A4206D1B068A1680BF01AFB08B94FF03C
:1030B0000008B8F1000F08D0D4F8FC302BB902E0BA
:1030C0004FF0FF3701E04FF0FF373846BDE8F88397
:1030D00070B582B00446154601AAA02307F088FA0D
:1030E00028B110F1620F13D10020286012E0266889
:1030F000019B1E44204631462A4607F0A9FA10B12A
:10310000A0F5085006E02368B34202D0024801E06F
:1031100000E0002002B070BD9ADDFFFFF0B583B083
:10312000044616461F4601AA302307F061FA10B183
:10313000A0F5105016E02568019B1D442046294645
:10314000324606F05FFB50B9204629463A4606F063
:1031500059FB28B92368AB4203D0034802E001E0E1
:1031600000E0002003B0F0BD9ADBFFFFF0B583B0B4
:1031700005460C4616461F46002313603B6001AA15
:10318000302307F035FA10B1A0F5145033E02B6866
:10319000A3422BD028462146324607F03DFA03468B
:1031A00080B110F1620F05D128462146324607F062
:1031B0004FFA034613B1A3F514501CE033680BB16A
:1031C000012333602B68A34212D0284621463A4699
:1031D00007F03EFA10B1A0F514500CE02B68A342A2
:1031E00008D13B6801333B60002004E0002002E08E
:1031F000002000E0014803B0F0BD00BF9ADAFFFFF5
:1032000010B584B01446002301938DF80830039361
:1032100001AA07F05FFA10B1A0F5145016E0019B67
:103220008BB10023236007E0039AD25CD9008A4067
:1032300021680A4322600133019A9A4205D9032B7F
:10324000F2D9002002E0024800E0002004B010BDE6
:103250009CDAFFFF10B584B01446002301938DF86B
:103260000830039301AA07F035FA10B1A0F5145005
:1032700008E0019B012B04D1039B1B7823700020E5
:1032800000E0014804B010BD9CDAFFFF10B5144601
:10329000062307F061FA10B1A0F5145010BDA36821
:1032A0000BB9024810BD002010BD00BF9CDAFFFF23
:1032B000F0B583B004460D46174601AA302307F047
:1032C00097F910B1A0F5145046E02268019B134411
:1032D000AB422CD035E0EA1A002A34DD13F8016B3A
:1032E0002360204629466A4607F01EF910B1A0F572
:1032F000145031E016F0800F27D0822E04D02268BF
:10330000009B1344236012E0BB6843B1FB68F3B930
:10331000012010210AF016FFF860D0B107463E6088
:103320002368BB60009B7B60226813442360236892
:10333000AB42D0D30023FB602368AB420BD00748DD
:103340000AE0064808E0064806E0064804E00648A9
:1033500002E0064800E0002003B0F0BD9ADAFFFF6B
:10336000A0DAFFFF9EDAFFFF00DBFFFF96DAFFFF28
:103370002DE9F04186B004460D461646DC320323A3
:1033800006F03CFB002800F09B8010F1620F40F03B
:103390009E8000209DE000230293039304930093FA
:1033A00001932046294605AA302307F021F910B1E0
:1033B000A0F514508DE02368059F1F441B780293ED
:1033C0002046294603AA062307F012F910B1A0F5FA
:1033D00014507EE022680492039B13442360EB1A8E
:1033E000002B65DD204639466A4607F015F928B1FD
:1033F00010F1620F02D0A0F514506AE02046394661
:1034000005AA042307F0F4F810B1A0F5145060E009
:103410002268059B02EB0308B8454BD102A801A91D
:1034200004F0D6F910B1C4F8008049E0D6F8F820CD
:10343000019B1A4240D11A43C6F8F820B3F5807FA9
:103440000CD004DC042B13D0202B21D036E0B3F5B4
:10345000006F15D0B3F5803F22D02FE020464146C3
:1034600006F1FC0206F58073FFF780FE40B330E002
:103470002046414606F58272FFF7C2FE00B328E0FF
:103480002046414606F58472FFF700FFC0B120E0F8
:103490002046414606F1E802FFF70AFF80B118E036
:1034A0002046414606F58C72FFF7D4FE40B110E08D
:1034B00009480EE009480CE009480AE0094808E01C
:1034C0002368AB42FFF467AF02D0044801E000E09C
:1034D000002006B0BDE8F081A0DAFFFF9ADAFFFF16
:1034E00000DBFFFF80DFFFFF10B50346012901D09D
:1034F000062908D110461C46FDF754FAE3689842A5
:1035000004D3002010BD4FF0FF3010BD4FF0FF304E
:1035100010BD00BF38B505460C460BF0E1FA6268F5
:10352000022A1DD9A46823782A2B1BD163782E2B5D
:103530001AD1002103E06B5C2E2B03D001318142B4
:10354000F9D3002191B1401A013A904211D1601C87
:103550002944FFF7DDFC034668B14FF0FF330AE072
:10356000002308E0002306E0002304E04FF0FF33CF
:1035700001E04FF0FF33184638BD00BF2DE9F04F92
:1035800099B005460C460493229E239F002317936F
:10359000A43006F061FA18B13B6843F001033B60C8
:1035A00005F18C0006F05AFA18B13B6843F4007339
:1035B0003B60049895F82811FFF792FC18B13B681E
:1035C00043F480433B60049895F82911FFF794FC7D
:1035D00018B13B6843F400433B603B6843F0080389
:1035E0003B6095F82801FEF7D7FE059028B1696980
:1035F0002A6907ABFEF74AFF4BE0002449E0284662
:1036000021460122B6FA86F35B09FFF72BFD00285D
:103610003DD106F101086A6C636C9A4206D1A86C30
:10362000A16CAA6B0BF05CF800B9B046D4F800317D
:10363000002B01DD98452ADC95F829B1D5F82CA19D
:1036400004F1BC0895F828910598FEF7FFFFD5F81E
:10365000243107AA009201900293D5F820310393F8
:103660005846514642464B46FDF718F978B93B6833
:1036700023F008033B60049895F829114246FFF7B0
:1036800033FF40B13B6843F480333B6003E0D4F840
:103690003041002CB3D124B36A6C636C9A4205D1DB
:1036A000A86CA16CAA6B0BF01BF8D0B104F1A400BC
:1036B00006F0D2F918B1179B43F00103179304F1F8
:1036C0008C0006F0CBF918B1179B43F400731793E5
:1036D000249B33B125982146721C17AB249CA0472C
:1036E00070B9249B33B12598294632463B46249C29
:1036F000A04730B93A68179B13433B60002000E0B5
:10370000FFE719B0BDE8F08F2DE9F04F9DB0279D80
:10371000289F00241B9405F10108B8F1080F05DD6E
:103720003B6843F008033B606848CBE0099308928C
:1037300006910646A43006F08FF918B13B6843F0B5
:1037400001033B6006F18C0006F088F918B13B6874
:1037500043F400733B60269896F82811FFF7C0FBEE
:1037600018B13B6843F480433B60269896F82911D2
:10377000FFF7C2FB18B13B6843F400433B6096F887
:103780002801FEF709FE079020B93B6843F00803C3
:103790003B6030E00798716932690BABFEF776FE4B
:1037A000069B03F1BC0A269896F829115246FFF7AA
:1037B0009BFE18B13B6843F480333B6096F829B117
:1037C000D6F82C9196F828410798FEF73FFFD6F8D7
:1037D00024310BAA009201900293D6F82031039372
:1037E0005846494652462346FDF758F818B13B68FB
:1037F00043F008033B60089C0AE00698214600223B
:10380000B5FA85F35B09FFF72DFC18B1D4F8304108
:10381000002CF2D184B1CDF800801BAB0193299B21
:1038200002932A9B039306982146099A269BFFF749
:10383000A5FE002834D042E0069BD3F830914C46D8
:103840000AE0069821460022B5FA85F35B09FFF7E6
:1038500009FC18B1D4F83041002CF2D18CB1269B70
:103860000093CDF804801BAB0293299B03932A9B02
:10387000049306982146089A099BFFF745FF78B103
:103880001EE0CDF800801BAB0193299B02932A9B7D
:10389000039306980899099A269BFFF76FFE80B953
:1038A000299B33B12A9831462A463B46299CA0479A
:1038B00040B93A681B9B13433B60002002E001E0E3
:1038C00000E0FFE71DB0BDE8F08F00BF00D9FFFFAB
:1038D0002DE9F04F87B0DDF844A0002B00F0B48054
:1038E00098469346894605460023CAF80030109B47
:1038F000002B56D000F16C0418460BF0F1F8064688
:10390000D5F8F83013F0200F45D005F1E80416E0A3
:103910006768B74205D11098A1683246FFF7F8FAF8
:1039200078B1022F0AD9A0684C4902220AF0D8FEC9
:1039300020B910982146FFF7EDFD10B1E468002C86
:10394000E6D174BB0423CAF800302AE06268032A77
:1039500007D14348A1680AF0C3FE034610B1012312
:1039600000E00123B3B92769B74205D16069109916
:103970003246FFF7CDFA80B1022F0BD96069374983
:1039800002220AF0ADFE28B9109804F10C01FFF7ED
:10399000C1FD10B1A469002CD8D114B90423CAF810
:1039A00000304C4608E02846214600220123FFF75C
:1039B00059FB18B1D4F83041002CF4D17CB100236C
:1039C0000093CDF804A0129B0293139B0393284607
:1039D00021465A464346FFF7D1FD80B336E0D5F87D
:1039E000304108E02846214600220123FFF73AFB38
:1039F00018B1D4F83041002CF4D18CB1CDF800804E
:103A000000230193CDF808A0129B0393139B04930A
:103A1000284621464A465B46FFF776FE78B116E017
:103A200000230093CDF804A0129B0293139B0393F1
:103A3000284649465A464346FFF7A0FD40B9DAF802
:103A4000003033B1074805E0074803E002E001E039
:103A500000E0002007B0BDE8F08F00BF70F800085C
:103A600074F8000800D9FFFF00D8FFFF08B5002157
:103A70004FF49A720AF040FF08BD00BF00285AD0E8
:103A8000F8B50746064606F1BC00FCF797FE746ED3
:103A900008E0A56920462021FFF718FA20460AF021
:103AA00091FB2C46002CF4D1D6F8844008E0A5699F
:103AB00020462021FFF70AFA20460AF083FB2C4615
:103AC000002CF4D1D6F8144108E0E5682046102116
:103AD000FFF7FCF920460AF075FB2C46002CF4D1C8
:103AE000D6F8F44008E0E56820461021FFF7EEF92B
:103AF00020460AF067FB2C46002CF4D1B06828B1B0
:103B00007168FFF7E3F9B0680AF05CFBD6F8306142
:103B1000002EB8D13C46D4F8305120464FF49A716B
:103B2000FFF7D4F9BC4202D020460AF04BFB2C46EA
:103B3000002DF0D1F8BD70472DE9F0418EB0002383
:103B400009930A930B9306930793089303930493A3
:103B50000593002800F053810446002900F05181AC
:103B600015460E460D92012011460AF0EBFA0C9014
:103B7000002800F0488131462A460AF0E3FD0C9DFA
:103B8000A5600D9B63601D440CA829460DAA302337
:103B900006F02EFD20B12046FFF770FF9C4D33E16B
:103BA0000C9BEA1A0D9EB24204D22046FFF766FF34
:103BB000984D29E11E4463610CA829460DAA3023C3
:103BC00006F016FD054628B12046FFF757FFA5F57C
:103BD000065519E10D9B0C9F1F446369FB1A236175
:103BE0000CA8394604F11802FFF772FA054688B9A5
:103BF0000CA8394604F11C0205F098FD054648B9A9
:103C000004F128080CA83946424609AB05F0B6FD78
:103C1000054618B12046FFF731FFF5E0A3690133EF
:103C2000A361032B04DD2046FFF728FF7A4DEBE06C
:103C300004F596730093404609A904F5947204F2C2
:103C4000291305F0BBFE054618B12046FFF716FF05
:103C5000DAE00EA850F8083DE36339460DAA302398
:103C600006F0C6FC054628B12046FFF707FFA5F57C
:103C70000655C9E00CA80D9B0C99194404F14C029F
:103C800005F086FD054618B12046FFF7F7FEBBE0BC
:103C9000E26B0EA850F8083D9B1AA363394604F165
:103CA0008C0204F1A403FFF739FA054618B1204647
:103CB000FFF7E4FEA8E00EA850F8083DA3643946DB
:103CC0000DAA302306F094FC054628B12046FFF7E4
:103CD000D5FEA5F5065597E00D9B6BB10EA850F8E3
:103CE000081D194404F16C0205F052FD054618B197
:103CF0002046FFF7C3FE87E0A26C0EA850F8083DEF
:103D00009B1A6364394604F1BC02FCF7D5FE0546F4
:103D100018B12046FFF7B2FE76E0A369023B012B03
:103D20000CD80CA8394604F1C4020123FFF70EF9A0
:103D3000054618B12046FFF7A1FE65E0A369023BE6
:103D4000012B0CD80CA8394604F1D0020223FFF74E
:103D5000FDF8054618B12046FFF790FE54E0A36930
:103D6000032B0AD10CA839462246FFF701FB054672
:103D700018B12046FFF782FE46E00C9BBB4204D000
:103D80002046FFF77BFE234D3EE00CA8314603AAF8
:103D900006AB05F0F3FC054618B12046FFF76EFEB2
:103DA00032E0E26A049B9A420FD1206B05990AF037
:103DB00097FC054648B90A9A079B9A4205D14AB131
:103DC0000B9808990AF08CFC20B12046FFF756FEAC
:103DD000124D19E00CA8314604F58E7205F0CEFDA7
:103DE000074620B12046FFF749FE3D460CE00C9BFC
:103DF0009E4209D02046FFF741FE064D04E0084DE3
:103E000002E0074D00E0074D28460EB0BDE8F08106
:103E100080DEFFFF1ADEFFFF80DAFFFF80D9FFFFA1
:103E200000D8FFFF80D7FFFFA8B32DE9F84307466E
:103E300099B30446002601E026461C46A5691DB13B
:103E4000D4F83031002BF7D1B84691460F467DB1FA
:103E5000D4F8303163B901204FF49A710AF072F945
:103E6000C4F83001E0B1FFF701FE2646D4F8304136
:103E7000204639464A46FFF75FFE054698B116B11F
:103E80000023C6F83031444502D020460AF09AF9A2
:103E90002846BDE8F883054870470448BDE8F88324
:103EA0000348BDE8F8830020BDE8F88300D8FFFF91
:103EB00080D7FFFF002864D02DE9F04788B00C467A
:103EC0001746824600295ED0084633490AF08EFF25
:103ED00008B9012300E00223012B05D150462146F9
:103EE0003A46FFF7A1FF53E0022B3FD000263546AC
:103EF000B14640E005A803F0AFFA00230093019318
:103F000004AB029305A82449244A234603F0BEFAD1
:103F1000804678B9049BFF1A1C4450460599069ABE
:103F2000FFF782FF804605A803F0E4FBB8F1000F1D
:103F300010D116E010F5A45F16D010F5845F1AD0EA
:103F400005A803F0D7FB049BFF1A1C4405B945469E
:103F500001360EE018F5225F06D005B94546013658
:103F600007E04FF0010904E0404611E00026354625
:103F7000B146012FBED8B9F1000F06D13DB90848AE
:103F800006E008487047074802E0304600E028464F
:103F900008B0BDE8F08700BF78F8000894F8000882
:103FA00080D8FFFF00D8FFFF03E00022027019460F
:103FB00001304B1E0029F8D1704700BFF0B5002337
:103FC0001D4613E01768FC1A146051F8046BB442E4
:103FD0002CBF4FF0000E4FF0010E9F422CBF7346D6
:103FE0000EF10103A41B42F8044B01358542E9D3CD
:103FF00007E01168C81A42F8040B99422CBF00234D
:104000000123002BF5D1F0BD2DE9F0430024C4E0DD
:104010000D68A5FB038914EB08042CBF01250025BE
:104020001668361945EB090516604E68A3FB06674E
:10403000AD192CBF012400245668751944EB070400
:1040400055608E68A3FB0667A5192CBF01240024C8
:104050009668751944EB07049560CE68A3FB066764
:10406000A5192CBF01240024D668751944EB070458
:10407000D5600E69A3FB0667A5192CBF0124002497
:104080001669751944EB070415614E69A3FB0667B1
:10409000A5192CBF012400245669751944EB0704A7
:1040A00055618E69A3FB0667A5192CBF0124002466
:1040B0009669751944EB07049561CE69A3FB066701
:1040C000A5192CBF01240024D669751944EB0704F7
:1040D000D5610E6AA3FB0667A5192CBF0124002435
:1040E000166A751944EB070415624E6AA3FB06674E
:1040F000A5192CBF01240024566A751944EB070446
:1041000055628E6AA3FB0667A5192CBF0124002403
:10411000966A751944EB07049562CE6AA3FB06679D
:10412000A5192CBF01240024D66A751944EB070495
:10413000D5620E6BA3FB0667A5192CBF01240024D2
:10414000166B751944EB070415634E6BA3FB0667EA
:10415000A5192CBF01240024566B751944EB0704E4
:1041600055638E6BA3FB0667A5192CBF01240024A1
:10417000966B751944EB07049563CD6BA3FB05891A
:1041800014EB08052CBF01240024D66B751944EBF1
:104190000904D5631038403240310F283FF638AF5C
:1041A00064E00D68A5FB038914EB08042CBF01250E
:1041B00000251668361945EB090516604E68A3FB05
:1041C0000667AD192CBF012400245668751944EB0D
:1041D000070455608E68A3FB0667A5192CBF012450
:1041E00000249668751944EB07049560CE68A3FB1C
:1041F0000667A5192CBF01240024D668751944EB65
:104200000704D5600E69A3FB0667A5192CBF01241E
:1042100000241669751944EB070415614E69A3FB68
:104220000667A5192CBF012400245669751944EBB3
:10423000070455618E69A3FB0667A5192CBF0124ED
:1042400000249669751944EB07049561CD69A3FBB9
:10425000058914EB08052CBF01240024D6697519C3
:1042600044EB0904D561083820322031072898D85A
:1042700012E00E68A6FB0367A4192CBF4FF0010ED5
:104280004FF0000E164656F8045B2D194EEB07044E
:1042900015600138324604310028EAD113682344FE
:1042A00042F8043B9C4294BF00240124002CF5D129
:1042B000BDE8F08310B48B681C68A31C03F00403F2
:1042C00004EB4303202106E003FB04F2C2F10202E7
:1042D00002FB03F349080729F6D85B4203605DF847
:1042E000044B704720B101220260002242608260CC
:1042F000704700BF80B110B50446806830B1616876
:104300008900FFF751FEA06809F05CFF01232360DC
:1043100000236360A36010BD704700BFF8B542F290
:10432000107399421BD846688E421BD20D46044634
:104330000846042109F006FF0746A8B1A16851B15B
:10434000B2000AF0FFF96168A0688900FFF72CFE4F
:10435000A06809F037FF6560A7600020F8BD6FF026
:104360000F00F8BD0020F8BD6FF00F00F8BD00BFD2
:10437000884227D0F8B50D4606468C681CB9FFF771
:10438000B9FF0020F8BD4B68013B03E054F823203F
:1043900012B9013B002BF9D15C1C2B68336030460D
:1043A0002146FFF7BBFF074650B97268B06800218D
:1043B00092000AF0A1FAB068A968A2000AF0C2F956
:1043C0003846F8BD0020704770B504460E460121FE
:1043D000FFF7A4FF054690B96268A068002192002B
:1043E0000AF08AFAA36886EAE672A2EBE6721A601D
:1043F000002E02DA4FF0FF3300E00123236028464D
:1044000070BD00BF10B400210C460FE0826852F866
:104410002420DA4012F0010F01D008460AE00133EF
:10442000013100E000231F2BF0D901344368A3427F
:10443000F8D800205DF8044B704700BF10B4436803
:10444000CBB1013B04E0826852F8232022B9013B42
:10445000002BF8D120210AE0202108E0826852F8E0
:1044600023204C1EE24012F0010F02D12146002908
:10447000F4D101EB431318465DF8044B704700BFBD
:1044800008B5FFF7DBFF0730C00808BDF8B50746E1
:104490000E461546002402E0335D13B90134AC42E8
:1044A000FAD3291B11F0030318BF0123384603EB8D
:1044B0009101FFF733FF8646C0B938460021FFF768
:1044C00083FF864690B900220EE04FEA920CB8684E
:1044D000013D735D02F00301C9008B4050F82C10C0
:1044E0000B4340F82C300132A542EED87046F8BD9F
:1044F000F8B506460D461746FFF7C2FF0446874249
:1045000017D3284600213A460AF0F6F97A1E00230E
:104510000BE0B168980851F8201003F00300C000C8
:10452000C140A954013A0133013C002CF1D10020D3
:10453000F8BD6FF00700F8BDF8B505460F464C0909
:1045400001F01F06FFF77AFF07446B68B7EB431FC4
:104550000AD917F01F0118BF0121284601EB571196
:10456000FFF7DCFE0346A8BBCCB16B680AE0A96884
:104570006FF0404298181F1B3A4451F8222041F82E
:104580002020013BA342F2D807E0A96803F1804252
:10459000013A002041F82200013B002BF5D1A6B9D9
:1045A000002317E0A86850F82410C6F1200201FA91
:1045B00006F740F82470A86850F824703B4340F890
:1045C0002430013421FA02F300E000236A68A24299
:1045D000E8D800231846F8BDF8B54C0901F01F01D2
:1045E0004368A34202D39C4204D119B10021FFF7D2
:1045F000EBFEF8BD44B915E082681D1952F825504C
:1046000042F82350013300E000234268121B9A4213
:10461000F2D804E08268002442F823400133426863
:104620009A42F7D8D9B14268002414E0876802F1B1
:104630008043013B57F82360C1F1200C26FA01FEAC
:1046400047F823E0876857F823502C4347F8234066
:10465000013A06FA0CF4002AE8D10020F8BD002047
:10466000F8BD00BF30B4436807E0846803F18042BE
:10467000013A54F8222012B9013B002BF5D14A68C7
:1046800007E08D6802F18044013C55F8244014B9DC
:10469000013A002AF5D103B9AAB1934215D89A423A
:1046A0000DD914E0846803F18042013A54F82240A5
:1046B0008D6855F8222094420CD80DD3013B002B75
:1046C000F0D100200AE0002008E0012006E04FF0D1
:1046D000FF3003E0012001E04FF0FF3030BC7047B5
:1046E0002DE9F04F83B081468B46924601930C9B97
:1046F0005A689868002192000AF0FEF80C9B9D68A9
:10470000DAF80480DBF80430434528BF43460093C1
:10471000002621E0D9F8083053F826702C68DBF821
:1047200008100B6807FB0344019B03FB04F400988B
:104730002A463B46FFF768FC4046DAF808102A464E
:104740002346FFF761FC2A1D2F6008F101030021B9
:1047500042F82310013615464645DBD308F1010225
:10476000D9F808002946920009F0ECFF4846514666
:10477000FFF778FF002807DB4046DAF80810D9F881
:104780000820FFF71BFC06E04046D9F808100C9BF8
:104790009A68FFF713FC03B0BDE8F08F30B587B01F
:1047A0000D461446012205920292039205AA049234
:1047B000009302A92A462346FFF792FF07B030BDB7
:1047C00070B4436807E0846803F18042013A54F80A
:1047D000222012B9013B002BF5D14A6807E08D6811
:1047E00002F18044013C55F8244014B9013A002AF2
:1047F000F5D103B93AB3934201D9066829E09A4248
:1048000002D90E68764224E00668002E02DD0A68AE
:10481000002A1ADB0A68002A11DD002E0FDA16E0E2
:10482000846803F18042013A54F822408D6855F8BB
:10483000222094420DD801D276420AE0013B002B9F
:10484000EED1002605E0002603E0012601E04FF04E
:10485000FF36304670BC704700B585B081EAE17321
:10486000A3EBE1730093002902DA4FF0FF3300E07D
:104870000123019301230293CDF80CD001A9FFF786
:104880009FFF05B05DF804FBF8B50746144690425B
:1048900001D10C4601468F4205D03846FFF768FD2E
:1048A0008646002845D101233B60666807E0A26880
:1048B00006F18043013B52F8233013B9013E002E2C
:1048C000F5D138463146FFF729FD8646002830D11C
:1048D000A068BB680024254611E0196821441960CE
:1048E00002680A4443F8042B50F804CB62452CBFFD
:1048F000002201228C4294BF1446541C0135B5425B
:10490000EBD314E07A68AA4208D83846691CFFF74E
:1049100005FD864668B9BB6803EB85031A68224427
:1049200043F8042B944294BF002401240135002C49
:10493000E8D17046F8BD00BFF0B585B005460F461A
:10494000144608461146FFF78DFE00282BDB01A810
:10495000FFF7C8FCA54206D101A82146FFF708FDD4
:104960000646D8B901ACBD4205D028463946FFF706
:10497000FFFC064690B901232B60606807E0A2683F
:1049800000F18043013B52F8233013B9013800286D
:10499000F5D1A168AA68FFF711FB002601A8FFF76F
:1049A000A9FC304601E06FF0090005B0F0BD00BF82
:1049B000F8B507460D4614460E68136803FB06F368
:1049C000002B18DA08461146FFF74CFE002808DBDA
:1049D000384629462246FFF7AFFF034680B93E60BE
:1049E0000EE0384621462A46FFF7A6FF034638B9AF
:1049F00076423E6004E0FFF747FF034600B93E60A1
:104A00001846F8BDF8B507460D4614460E681368FB
:104A100003FB06F3002B18DD08461146FFF722FEC4
:104A2000002808DB384629462246FFF785FF034663
:104A300080B93E600EE0384621462A46FFF77CFFEB
:104A4000034638B976423E6004E0FFF71DFF034697
:104A500000B93E601846F8BD00B585B082EAE27341
:104A6000A3EBE2730093002A02DA4FF0FF3300E079
:104A70000123019301230293CDF80CD001AAFFF783
:104A8000C1FF05B05DF804FB2DE9F04387B0804617
:104A90000E46174603A8FFF725FC6846FFF722FCE1
:104AA000B04507D103A83146FFF762FC81460028D4
:104AB00047D103AEB84507D168463946FFF758FCE1
:104AC000814600283DD16F46756807E0B26805F160
:104AD0008043013B52F8233013B9013D002DF5D13D
:104AE0007C6807E0BA6804F18043013B52F8233048
:104AF00013B9013C002CF5D140462919FFF70EFCF3
:104B00008146F0B940460021FFF75EFC814680B146
:104B100017E0D8F8082004F1804E0EF1FF3EBB6884
:104B20002846B16802EB8E0253F82E30FFF76CFA7C
:104B3000013C002CEDD132683B6803FB02F3C8F85E
:104B400000306846FFF7D6FB03A8FFF7D3FB4846C3
:104B500007B0BDE8F08300BF00B585B00123019325
:104B60000293CDF80CD0009201AAFFF78DFF05B09B
:104B70005DF804FB2DE9F04F99B006460F46154647
:104B80009B4618460021FFF767FE002800F0C88109
:104B900015A8FFF7A7FB12A8FFF7A4FB0FA8FFF7C4
:104BA000A1FB0CA8FFF79EFB09A8FFF79BFB28467B
:104BB0005946FFF757FD002814DA3EB13046002170
:104BC000FFF702FC0446002840F09981002F00F016
:104BD000AA8138462946FFF7CBFB0446002840F05F
:104BE0008E81A1E115A82946FFF7C2FB04460028E3
:104BF00040F0858112A85946FFF7BAFB0446002809
:104C000040F07D8101231293159369680FA802314A
:104C1000FFF784FB0446002840F071810FA80021B3
:104C2000FFF7D2FB0446002840F069810CA802215E
:104C3000FFF774FB0446002840F0618109A80321B6
:104C4000FFF76CFB0446002840F0598112A8FFF7DB
:104C5000F5FB00F01F001E2813D8C0F11F030293BC
:104C600015A81946FFF768FC0446002840F0478164
:104C700012A80299FFF760FC0446002840F03F812B
:104C800001E000230293169B03F1FF3A139B039369
:104C9000013B0493C3EB0A084FEA481912A849469E
:104CA000FFF74AFC0446002840F029810EE0119AE3
:104CB00052F82830013342F8283015A8014612AACC
:104CC000FFF7A0FE0446002840F0198115A812A99C
:104CD000FFF776FD0028EADA12A84946FFF77CFCC8
:104CE0000446002840F00B8106960795049DDDE000
:104CF00017994FEA8A03049351F82A30AA000592C3
:104D0000149A52F8252093420AD3C5EB0A0303F103
:104D10008043013B4FF0FF31119A42F823101EE00F
:104D20000193002300930AF18043013B51F82300D3
:104D3000DDE9008948EA000840464946002308F0BA
:104D400029FF012908BF002801D34FF0FF30C5EB30
:104D50000A0303F18043013B119A42F82300119AA0
:104D6000C5EB0A0606F1804808F1FF384FEA8809CA
:104D700052F82830013342F82830119A52F809309D
:104D8000013B42F809300CA80021FFF71DFB044647
:104D9000002840F0B4800E9A3DB1039B03F180439C
:104DA000023B149951F8233000E000231360149B58
:104DB000059A9A580E9B5A600CA80146119B53F80D
:104DC0000920FFF7C9FE0446002840F0988009A892
:104DD0000021FFF7F9FA0446002840F090800B9A72
:104DE000BAF1010F06D90AF18043023B179951F835
:104DF000233000E0002313600B9ABAF1000F06D0B5
:104E00000AF18043013B179951F8233000E0002359
:104E10005360179B049A9A580B9B9A600CA809A997
:104E2000FFF7CEFC0028A8DC0CA812A9119B53F8B0
:104E30002820FFF791FE0446002860D106F10069A2
:104E400009F1FF394FEA49190CA84946FFF774FBED
:104E50000446002853D115A801460CAAFFF7D2FD3D
:104E6000044600284BD115A80021FFF7F5FC0028C7
:104E70001ADA0CA812A9FFF77BFA044600283ED1E3
:104E80000CA84946FFF758FB0446002837D115A85F
:104E900001460CAAFFF78CFD044680BB119A52F81C
:104EA0002830013B42F828300AF1FF3AAA453FF684
:104EB0001FAF069E079D5EB130460FA9FFF758FA57
:104EC0000446E0B92A68DBF8003003FB02F33360E4
:104ED000AFB115A80299FFF77FFB044678B92B689C
:104EE00018A941F80C3D3846FFF742FA044630B99C
:104EF00038460021FFF7B0FC08B901233B6015A834
:104F0000FFF7F8F912A8FFF7F5F90FA8FFF7F2F984
:104F10000CA8FFF7EFF909A8FFF7ECF9204603E02A
:104F20006FF00B0000E0002019B0BDE8F08F00BF6B
:104F300070B504460E46154610460021FFF78CFC5E
:104F4000002825DB0020214632462B46FFF712FEC3
:104F50000646D8B906E0204621462A46FFF728FD36
:104F6000064698B920460021FFF776FC0028F2DBC0
:104F700006E0204621462A46FFF744FD064628B9AA
:104F800020462946FFF71CFC0028F2DA304670BDA7
:104F90006FF0090070BD00BF2DE9F04FADF2446D18
:104FA00081468A4690461D46DDF8687618460021FF
:104FB000FFF752FC0028C0F2EE81AB681B6813F0CB
:104FC000010F00F0EB8140460021FFF745FC00286F
:104FD000C0F2E7810DF23C602946FFF76BF90DF551
:104FE000C660FFF77FF90DF22460FFF77BF906A892
:104FF000FFF778F909A800214FF4C06209F07CFCA2
:105000004046FFF71BFAB0F5287F0DD2EF2809D8EC
:105010004F2805D8172801D9032406E0012404E00D
:10502000042402E0052400E00624062C00D906240E
:105030006B6803F1010B48465946FFF76FF90646C6
:10504000002840F085810CA85946FFF767F906460D
:10505000002840F07D810DF224604FEA4B01FFF7FC
:105060005DF90646002840F07381DAF80030B3F1AC
:10507000FF3F14BF0023012305935BB106A85146EF
:10508000FFF776F90646002840F062810123069377
:105090000DF1180A0FB1BB6823BB0DF5C6600121E5
:1050A000FFF792F90646002840F0528169680DF535
:1050B000C6608901FFF740FA0646002840F04881A3
:1050C0000DF5C66001462A46FFF732FF0646002866
:1050D00040F03E8167B10DF5C66307CB386079605B
:1050E000BA6005E00DF5C66338687968BA6807C329
:1050F00050462946FFF764FB002809DB0CA85146FF
:105100002A46FFF715FF0646002840F0218107E0F8
:105110000CA85146FFF72CF90646002840F01881EC
:105120000DF2246300930CA80DF5C6612A46DDF844
:105130003C36FFF7D5FA48460DF5C661FFF718F97A
:105140000646002840F0048148462946DDF83C2602
:105150000DF22463FFF722FB012C5ED9631E03933B
:105160004FF0010A0AFA03FA0AEB4A039B0009AA64
:10517000D3180293696818460131FFF7CFF8064645
:10518000002840F0E58002980CA9FFF7F1F80646E8
:10519000002840F0DD804FF0000B0BE00DF224639F
:1051A0000093029908462A46DDF83C36FFF798FA44
:1051B0000BF1010B039B9B45F0D30AF1010A28E098
:1051C0000AEB4A0B4FEA8B0B09AB9B4469685846C4
:1051D0000131FFF7A3F80646002840F0B9800AF134
:1051E000FF3101EB41018900584609AB1944FFF733
:1051F000BFF80646002840F0AB800DF22463009310
:1052000058460CA92A46DDF83C36FFF769FA0AF140
:10521000010A0123A3405345D2D8D8F804300393A0
:10522000002304939A469B460293BBF1000F0BD1D7
:10523000039B23B94FF00008DDF808B072E0039B30
:10524000013B03934FF0200B0BF1FF3BD8F80830E4
:10525000039A53F8223023FA0BF313F0010302D11F
:10526000049A002AE1D06BB9049A012A0AD10DF2FE
:1052700024630093484649462A46DDF83C36FFF74A
:105280002FFAD2E70AF1010ACAEB04029340029A0C
:105290001A430292A2450FD002230493C5E70DF2F0
:1052A00024630093484649462A46DDF83C36FFF71A
:1052B00017FA0AF1010A01E04FF0000AA245EED305
:1052C000029B03EB430189000DF2246300934846DF
:1052D00009AB19442A46DDF83C36FFF701FA0123F1
:1052E0000493002302939A469FE70DF224630093F0
:1052F000484649462A46DDF83C36FFF7F1F94FEAC1
:105300004B0B0123A34013EA0B0F09D00DF22463CA
:10531000009348460CA92A46DDF83C36FFF7E0F931
:1053200008F10108D045E0D348462946DDF83C267F
:105330000DF22463FFF732FA059B4BB14FF0FF33B8
:10534000C9F80030484629464A46FFF731FB064671
:10535000631E01259D4007E005EB4500800009AB79
:105360001844FEF7C7FF01350123A340AB42F3D831
:105370000CA8FEF7BFFF0DF22460FEF7BBFF06A8E6
:10538000FEF7B8FF0FB1BB681BB90DF5C660FEF79D
:10539000B1FF304607E06FF0030004E06FF0030058
:1053A00001E06FF003000DF2446DBDE8F08F00BF27
:1053B00070B58AB006460C46154607A8FEF792FF60
:1053C00004A8FEF78FFF01A8FEF78CFF04A8214672
:1053D000FEF7CEFF0446002868D101A82946FEF753
:1053E000C7FF0446002861D104A8FFF70BF8044664
:1053F00001A8FFF707F80546A04200D3254604A8F8
:105400002946FFF7E9F8044600284FD101A82946AC
:10541000FFF7E2F80446002848D1012301930493E2
:1054200033E004A8FEF7EEFF014604A8FFF7D4F826
:10543000044600283AD101A8FEF7E4FF014601A87E
:10544000FFF7CAF8044688BB04A801A9FFF7B8F91A
:1054500000280DDB04A8014601AAFFF76DFA0446F7
:1054600020BB04A80121FFF7B7F8044668B11DE08E
:1054700001A8014604AAFFF75FFA0446B0B901A8E3
:105480000121FFF7A9F8044680B904A80021FFF71D
:10549000E3F90028C5D101A82946FFF74DF80446D5
:1054A00020B9304601A9FEF763FF044607A8FEF7BE
:1054B00021FF04A8FEF71EFF01A8FEF71BFF2046F0
:1054C0000AB070BDB1F5807F12D870B5C0B0154676
:1054D0000C460646184669462246A847034628B9A0
:1054E000304669462246FEF7D1FF0346184602E0E1
:1054F0006FF00300704740B070BD00BFF0B59DB0C5
:1055000007460E46154610460021FFF7A5F900286C
:1055100040F3578116A8FEF7E5FE13A8FEF7E2FE5A
:1055200010A8FEF7DFFE0DA8FEF7DCFE19A8FEF7B7
:10553000D9FE0AA8FEF7D6FE07A8FEF7D3FE04A8F8
:10554000FEF7D0FE01A8FEF7CDFE19A831462A4687
:10555000FFF72EFF0446002840F0168119A801210C
:10556000FFF77AF9002840F00D8116A831462A4647
:10557000FFF7DEFC0446002840F0068113A816A9B8
:10558000FEF7F6FE0446002840F0FE800AA82946F1
:10559000FEF7EEFE0446002840F0F68007A82946F4
:1055A000FEF7E6FE0446002840F0EE8010A8012138
:1055B000FEF70AFF0446002840F0E6800DA800210F
:1055C000FEF702FF0446002840F0DE8004A8002118
:1055D000FEF7FAFE0446002840F0D68001A801211B
:1055E000FEF7F2FE0446002840F0CE8033E013A818
:1055F0000121FEF7F1FF0446002840F0C580129B10
:105600001B6813F0010F04D10F9B1B6813F0010FEF
:1056100011D010A801460AAAFFF7CAF904460028CB
:1056200040F0B2800DA8014616AAFFF7EBF9044638
:10563000002840F0A98010A80121FEF7CDFF044604
:10564000002840F0A1800DA80121FEF7C5FF044607
:10565000002840F09980159B1B6813F0010F30D192
:10566000C5E707A80121FEF7B7FF0446002840F070
:105670008B80069B1B6813F0010F04D1039B1B68F2
:1056800013F0010F0FD004A801460AAAFFF790F902
:105690000446002878D101A8014616AAFFF7B2F9FE
:1056A0000446002870D104A80121FEF795FF0446A6
:1056B000002869D101A80121FEF78EFF04460028C9
:1056C00062D1099B1B6813F0010FCAD013A807A968
:1056D000FFF776F8002817DB13A8014607AAFFF7A3
:1056E00091F9044600284FD110A8014604AAFFF7FB
:1056F00089F90446002847D10DA8014601AAFFF701
:1057000081F90446B0B13FE007A8014613AAFFF7AC
:1057100079F90446002837D104A8014610AAFFF7FA
:1057200071F9044680BB01A801460DAAFFF76AF98A
:10573000044648BB13A80021FFF78EF800288AD141
:1057400006E004A801462A46FFF732F90446D8B914
:1057500004A80021FFF780F80028F2DB06E004A887
:1057600001462A46FFF74EF9044668B904A82946BF
:10577000FFF726F80028F2DA384604A9FEF7F8FD0C
:10578000044601E06FF00D0416A8FEF7B3FD13A860
:10579000FEF7B0FD10A8FEF7ADFD0DA8FEF7AAFDBF
:1057A00019A8FEF7A7FD0AA8FEF7A4FD07A8FEF7B3
:1057B000A1FD04A8FEF79EFD01A8FEF79BFD204673
:1057C00001E06FF003001DB0F0BD00BF30B587B041
:1057D00000248DF81740FAF723FF2D4801F004FA52
:1057E000FAF762FF2046FAF791FF2046FAF780FFAA
:1057F00007F012FB274801F0F7F907F0B9FA26483D
:1058000001F0F2F9254D284600F0C2FFFAF78CFFAF
:10581000FAF7E0FE224803F0EBF868460DF11701B5
:1058200003F01EF99DF81700012140F6B832234617
:10583000FAF7B6FC9DF8170005F1180140F2BB120B
:105840004FF47A7303F0DAF8684603F087F9C0B9C9
:10585000144D4FF4006428460021224609F04CF80C
:10586000029829462246FCF711FD041EF0DD0E4881
:10587000294601F0B9F9029829462246FCF7F0FAC8
:10588000E6E70146094801F0AFF9002007B030BD56
:10589000B8FC0008D0FC0008F8FC00081C00002040
:1058A0009D070008D408002010FD000824FD000812
:1058B00003E000220270194601304B1E0029F8D186
:1058C000704700BF08B500216C2209F015F808BD2B
:1058D00020B108B56C21FFF7EBFF08BD704700BF92
:1058E00008B56C2208F02EFF08BD00BF002303603E
:1058F00043600B46A9B9194A8260194AC260194A25
:105900000261194A4261194A8261194AC261194AFF
:10591000026202F17452A2F52302A2F6924242629E
:1059200019E0154A8260154AC26002F1794202F517
:10593000740202F501620261114A4261114A8261F8
:1059400002F1D14202F5C01202F51E62C2610E4A96
:1059500002620E4A42628366704700BF67E6096AC8
:1059600085AE67BB72F36E3C3AF54FA57F520E5180
:105970008C68059BABD9831FD89E05C107D57C36A3
:1059800039590EF7310BC0FFA78FF964A44FFABE47
:105990002DE9F04FD3B00990002306E09A1C50F88F
:1059A00022200AAC44F823200133072BF6D900202B
:1059B00010E011F8204001EB800253781B0443EA09
:1059C0000463947843EA0423D278134312AA42F87A
:1059D000203001300F28ECD94FF0000C43E1119B2F
:1059E0000E984FEAF02989EAB01989EA706999445A
:1059F0000F9D109A85EA0203034053409944DFF853
:105A0000588758F82C1089440DF1480E5EF82C1078
:105A100089440A9E4FEA763181EAB60181EAB6519D
:105A20000B9F06EA0703DDF830B046EA07040BEAED
:105A3000040423430B440D9C4C4409EB03014FEA3F
:105A4000F42383EAB41383EA746302EB030980EA64
:105A5000050323406B4099440CF1010258F82230B1
:105A60004B445EF8222003EB02094FEA713383EACC
:105A7000B10383EAB15301EA060246EA010A07EAE2
:105A80000A0A42EA0A021A44CB4409EB02034FEA2B
:105A9000FB2282EABB1282EA7B6205EB020980EA02
:105AA00004020BEA0202424091440CF1020558F84C
:105AB00025204A445EF825502A444FEA733989EA82
:105AC000B30989EAB35901EA030541EA030A06EA80
:105AD0000A0A45EA0A054D4407EB020A02EB0509EA
